:10047900756E6C6F636B006C6F636B006C6967689A
:10048900746F6E006C696768746F6666006C696783
:100499006874666C6173680073657474696D65006E
:1004A90067657474696D650073657472656D696EED
:1004B9006474696D650067657472656D696E6474ED
:1004C900696D6500736574616C61726D74696D65E0
:1004D90000676574616C61726D74696D650067654B
:1004E90074737461746500626565706F6E0072651E
:1004F9006D696E646F6E0072656D696E646F6666B4
:1005090000616C61726D6F6E00616C61726D6F6616
:10051900660067657472656D696E6400676574610C
:100529006C61726D00676574636F756E7400636CDE
:100539006561726572726F0030302D33302D303045
:100549000030312D33302D30302C30362D33302DD5
:030559003030003F
:1009AE00603F006FFF0479FF0480FF0485FF048D14
:1009BE00FF0496FF04A1FF04A9FF04B1FF04BFFFCB
:1009CE0004CDFF04DAFF04E7FF04F0FF04F7FF0590
:1009DE0000FF050AFF0512FF051BFF0525FF052E6B
:1009EE00FF0537011700011600C104C105C102C180
:1009FE0083C109C108C107C181C186C10041006818
:0F0A0E0000420034000041000103420069000073
:060CF400C2B3C2B5D2B587
:100CFA00EFA2E092B4D2B3C2B3A2E192B4D2B3C229
:100D0A00B3A2E292B4D2B3C2B3A2E392B4D2B3C250
:100D1A00B3A2E492B4D2B3C2B3A2E592B4D2B3C23C
:100D2A00B3A2E692B4D2B3C2B3A2E792B4D2B3C228
:020D3A00B322E2
:100DDA0090000612003F90000724D0C454F0FF127E
:0A0DEA00003F24D02FFCE4FD7F8EB3
:0F0DF400AE05120CF4AF06120CFAC2B5D2B32240
:100D3C00D2B4A2B492E0D2B3C2B3A2B492E1D2B311
:100D4C00C2B3A2B492E2D2B3C2B3A2B492E3D2B30E
:100D5C00C2B3A2B492E4D2B3C2B3A2B492E5D2B3FA
:100D6C00C2B3A2B492E6D2B3C2B3A2B492E7FF224A
:0C0EF300E4FE120CF4120D3CC2B5D2B3A8
:010EFF0022D0
:1008B7008B228A2389247F81120EF3AB34AA35A9B0
:1008C70036EF12006C7F83120EF3AB31AA32A933D5
:1008D700EF12006C7F85120EF3AB2EAA2FA930EF13
:1008E70012006C7F87120EF3AB28AA29A92AEF12F0
:1008F700006C7F89120EF3AB25AA26A927EF1200F9
:100907006C7F8D120EF3AB22AA23A924EF12006C81
:100917007F8B120EF3AB2BAA2CA92DEF12006CAB19
:0D0927002BAA2CA92D120026540F02006CE3
:100B4E007F81120EF3EF64807053FD7F8E120DF4D1
:100B5E007D167F8C120DF47D057F8A120DF47D01BA
:100B6E007F88120DF47F86120DF41D7F84120DF412
:100B7E007F82120DF47F80120DF47D057F90120D91
:100B8E00F4E4FCECC3943C500DEC24C0FFE4FD12E5
:0D0B9E000DF40C0C80ED7D807F8E120DF4A7
:010BAB002227
:10055C0090000212003F24D0C454F0FF900003120C
:10056C00003F24D02FF51090000512003F24D0C47A
:10057C0054F0FF90000612003F24D02FF51190008C
:10058C000812003F24D0C454F0FF90000912003F21
:10059C0024D02FF51290000B12003F24D0F51390AD
:1005AC00000D12003F24D0C454F0FF90000E120036
:1005BC003F24D02FF51490001012003F24D0C454C7
:1005CC00F0FF90001112003F24D02FF5159000136E
:1005DC0012003F900014120DE3AD107F8C120DF43D
:1005EC00AD117F88120DF4AD127F86120DF4AD1390
:1005FC007F8A120DF4AD147F84120DF4AD157F8239
:10060C00120DF4AD047F80120DF47D807F8E020DEF
:01061C00F4E9
:100C600090000112003F24D0FF12002624D0C4546B
:100C7000F02FF52690000312003F24D0C454F0FF5B
:100C800090000412003F24D02FF527120DDAAD2674
:100C90007F84120DF4AD277F82120DF4AD047F80A6
:0A0CA000120DF47D807F8E020DF42A
:100CAA0090000112003F24D0FF12002624D0C45421
:100CBA00F02FF52690000312003F24D0C454F0FF11
:100CCA0090000412003F24D02FF527120DDAAD262A
:100CDA007FC0120DF4AD277FC2120DF4AD047FC49C
:0A0CEA00120DF47D807F8E020DF4E0
:10061D0090000112003F24D0FF12002624D0C454B4
:10062D00F02FF52690000312003F24D0C454F0FFA4
:10063D0090000412003F24D02FF5279000061200E1
:10064D003F24D0C454F0FF90000712003F24D02F58
:10065D00F52890000912003F24D0C454F0FF9000FB
:10066D000A12003F24D02FF52990000C12003F24D0
:10067D00D0C454F0FF90000D12003F24D02FF52A66
:10068D0090000F12003F24D0C454F0FF90001012C0
:10069D000DE9AD267FC6120DF4AD277FC8120DF4FE
:1006AD00AD287FCA120DF4AD297FCC120DF4AD2A01
:1006BD007FCE120DF4AD047FD0120DF47D807F8EB0
:0306CD00020DF427
:100BAC007F85120EF3EFC4540F2430F5267F851287
:100BBC000EF3EF540F2430F52775282D7F83120E7A
:100BCC00F3EFC4540F2430F5297F83120EF3EF5446
:100BDC000F2430F52A752B2D7F81120EF3EFC454A0
:100BEC000F2430F52C7F81120EF3EF540F2430F5C7
:090BFC002DE4F52EFB7A007926A8
:010C050022CC
:100C06007FC1120EF3EFC4540F2430F5267FC112B4
:100C16000EF3EF540F2430F52775282D7FC3120EDF
:100C2600F3EFC4540F2430F5297FC3120EF3EF54AB
:100C36000F2430F52A752B2D7FC5120EF3EFC45401
:100C46000F2430F52C7FC5120EF3EF540F2430F528
:090C56002DE4F52EFB7A0079264D
:010C5F002272
:1006D0007FC7120EF3EFC4540F2430F5267FC712E4
:1006E0000EF3EF540F2430F52775282D7FC9120E15
:1006F000F3EFC4540F2430F5297FC9120EF3EF54E1
:100700000F2430F52A752B2D7FCB120EF3EFC45436
:100710000F2430F52C7FCB120EF3EF540F2430F55D
:100720002D752E2C7FCD120EF3EFC4540F2430F50F
:100730002F7FCD120EF3EF540F2430F53075312D8D
:100740007FCF120EF3EFC4540F2430F5327FCF1257
:100750000EF3EF540F2430F53375342D7FD1120E84
:10076000F3EFC4540F2430F5357FD1120EF3EF545C
:0D0770000F2430F536E4F537FB7A007926CA
:01077D002259
:100EC700D2AFD2AC758921759850758DF3758BF3B8
:060ED700758780D28E2217
:080003008F993099FDC299228A
:100EDD00120026FF600C120003740129F9E43AFA9E
:060EED0080EEE402006C3F
:040E4D007FF47E01AF
:100E5100EF1FAA0670011E4A6013E4FCFDC3ED9466
:0D0E610058EC940250EA0DBD00010C80F029
:010E6E002261
:070EAF00900001E0FF7E004E
:100EB600D2A9EF75F00AA4900000F0120E4DC2A957
:010EC6002209
:100D7C008E228F23D2A9AE22AF237C007D0A1200D3
:100D8C007E900000E0C39FEE6480F8748098500C55
:100D9C00E004F07F647E00120E5180DA120E4DC218
:020DAC00A9227A
:10093400BF2A08D204E4F516F51722BF2322C20405
:10094400D205E517B4010B74022516F582E43400D0
:10095400800974362516F582E43400F583E4F02228
:10096400BF201375170174362516F582E43400F59B
:1009740083E4F0F51622300430E517146011047096
:100984001EAE16051674362EF582E43400800CAEC5
:1009940016051674022EF582E43400F583EFF0E5B3
:0A09A40016C394644003E4F5162224
:0402C2008E228F23D6
:1002C600E4F524F52578367C007D017BFF7A0579F7
:1002D60037120250EF7003FF8005900068E0FF9030
:1002E6000068EFF0E4F524F525C3E5259523E5221E
:1002F6006480F8E524648098400302046390006FEC
:1003060075F003E5251200C6E52475F003A42583E0
:10031600F583E0FBA3E0FAA3E0F978367C007D01E3
:10032600120250EF6003020458900068E0D3940371
:100336004003020458E5246003020449E525B41489
:10034600004003020449900353F828287302038FE0
:100356000203980203A10203AA0203B30203BA022C
:1003660003C60203CB0203D60203DB0203E6020343
:10037600EE0203F90203FD02040102040502040968
:1003860002040D0204180204239000017401F00215
:1003960004499000017403F0020449C208D209C25C
:1003A60095020449C209C208D295020449C209D27B
:1003B600080204497B017A007902120C60020449A2
:1003C600120BAC801E7B017A007902120CAA807394
:1003D600120C06800E7B017A00790212061D8063DC
:1003E6001206D0120EDD805B3003047FFF80517F42
:1003F60000804DC297804CD2068048C2068044D207
:10040600018040C201803C3006047FFF80027F00ED
:10041600802E3001047FFF80027F008023900069D8
:10042600E0FEA3E0FF7C017D001200901200039025
:100436000069E0FEA3E0FF7C017D00120090AF059D
:10044600120003E4900036F0900002F0900068F08D
:10045600800B0525E525700205240202EFE525B58A
:100466002310E524B5220B300008900068E004F064
:02047600C200C2
:010478002261
:03002300020E2AA0
:0B0E2A00C0E0C083C082C0D075D008BB
:0F0E3500D28CC2ACC298AF99D200120934D2ACA1
:090E4400D0D0D082D083D0E0327E
:10000E00758921758CFF758ACED2AFD2A9D28C227A
:03000B00020AEDF9
:100AED00C0E0C083C082C0D075D000C004C005C0B6
:100AFD0006C007758CFF758ACE900035E004F07046
:100B0D0006900034E004F0900000E0FF7E009000BD
:100B1D0034E0FCA3E0FDB50708EEB50404C29680F1
:100B2D000FBC010CBD9009900034E4F0A3F0D296F7
:100B3D00D007D006D005D004D0D0D082D083D0E05D
:010B4D003275
:100E0300120EC712000E120B4ED295D2977BFF7AA9
:100E1300057941120CAA7A05794A12061D120EAF02
:070E23007FF47E01020E5175
:100E910020941AD295D297C209C208900001740316
:0E0EA100F0E0FF7E00120D7C120E4DC28C227E
:100E6F0030901A2003179000017403F0D203900002
:100E7F006AE004F0700B900069E004F022A29092F7
:020E8F0003223C
:100DAE00900001E0B4010A200307200904C29580D7
:100DBE0005200902D295300812C2957F647E00127A
:0C0DCE000E51D2957F647E00120E51225F
:100A8600120C0690000112003F24D0FF120026240B
:100A9600D0C454F02FFF90000312003F24D0C4545A
:100AA600F0FE90000412003F24D02EFE90000612A5
:100AB600003F24D0C454F0FD90000712003F24D01C
:100AC6002DF52290006CE06F701CA3E0B506173080
:100AD600061430900F9000AEE075F00584E5F070D6
:060AE60003D20722C20743
:010AEC0022E7
:10077E001206D090000112003F24D0FF1200262452
:10078E00D0C454F02FF52290000312003F24D0C4A1
:10079E0054F0FF90000412003F24D02FF523900058
:1007AE000612003F24D0C454F0FF90000712003F01
:1007BE0024D02FF52490000912003F24D0C454F009
:1007CE00FF90000A12003F24D02FFF90000C120061
:1007DE003F24D0C454F0FE90000D12003F24D02EC2
:1007EE00FE90000F12003F24D0C454F0FD90001074
:1007FE0012003F24D02DF52590006CE0FDC395220C
:10080E00401AEDD39F5015A3E0FFC39523400DEF83
:0C081E00D39E5008309005300102D20734
:01082A0022AB
:100A1E00120E4D75B238120E03120EAF120E911247
:100A2E000E6F120DAE120A8612077E7525017526FF
:100A3E000075276E752801752900752A6B752B01B7
:100A4E00752C00752DAF752E01752F0075306C75D8
:100A5E00310175320075336D75340175350075369B
:100A6E00AE7B017A0079B01208B7A207B392977FD6
:080A7E00157E001202C280A1E6
:0300000002082BC8
:0C082B00787FE4F6D8FD75813702087272
:10002600BB010689828A83E0225002E722BBFE02D8
:09003600E32289828A83E493220B
:10003F00BB010CE58229F582E5833AF583E0225076
:10004F0006E92582F8E622BBFE06E92582F8E222C0
:0D005F00E58229F582E5833AF583E49322DA
:10006C00BB010689828A83F0225002F722BBFE0173
:02007C00F3226D
:10007E00EF8DF0A4A8F0CF8CF0A428CE8DF0A42E96
:02008E00FE2250
:10009000C2D5EC30E709B2D5E4C39DFDE49CFCEE8B
:1000A00030E715B2D5E4C39FFFE49EFE12026DC394
:1000B000E49DFDE49CFC800312026D30D507C3E48F
:0600C0009FFFE49EFE22FA
:0C00C600A42582F582E5F03583F5832245
:1000D200E3F5F009E208B5F06D606B80F3E3F5F04B
:1000E20009E608B5F060605E80F387F009E608B5BE
:1000F200F054605280F487F009E208B5F048604697
:1001020080F488828C8387F009E0A3B5F0386036EA
:1001120080F488828C8387F009E493A3B5F027608A
:100122002580F388828C83E3F5F009E0A3B5F0160D
:10013200601480F388828C83E3F5F009E493A3B51D
:10014200F004600280F20201FD808580E7808E80EB
:10015200D2803C8015806C807E809B80B5808B80B5
:10016200A1804F8070803A02020989828A83ECFA68
:10017200E493F5F0A3C8C582C8CCC583CCE493A3AD
:10018200C8C582C8CCC583CCB5F070606E80E189E9
:10019200828A83E493F5F0A3E208B5F05E605C80A6
:1001A200F289828A83E0F5F0A3E608B5F04D604B50
:1001B20080F389828A83E0F5F0A3E208B5F03C601F
:1001C2003A80F389828A83E493F5F0A3E608B5F0D6
:1001D2002A602880F2805389828A83ECFAE493F5BC
:1001E200F0A3C8C582C8CCC583CCE0A3C8C582C869
:1001F200CCC583CCB5F004600280E27FFFB5F0028B
:100202000F2240027F012289828A83ECFAE0F5F014
:10021200A3C8C582C8CCC583CCE0A3C8C582C8CC5C
:10022200C583CCB5F0D560D380E389828A83ECFAAA
:10023200E0F5F0A3C8C582C8CCC583CCE493A3C8BB
:10024200C582C8CCC583CCB5F0B160AF80E288F07E
:10025200ED2402B4040050A3F582EB2402B404009E
:0B0262005099232345822390014B7329
:10083700020A1EE493A3F8E493A34003F68001F2AF
:1008470008DFF48029E493A3F85407240CC8C333C2
:10085700C4540F4420C8834004F456800146F6DF91
:10086700E4800B01020408102040809009AEE47E6A
:10087700019360BCA3FF543F30E509541FFEE49386
:10088700A360010ECF54C025E060A840B8E493A34D
:10089700FAE493A3F8E493A3C8C582C8CAC583CA78
:1008A700F0A3C8C582C8CAC583CADFE9DEE780BE30
:010A1D0000D8
:10026D00BC000BBE0029EF8DF084FFADF022E4CC75
:10027D00F875F008EF2FFFEE33FEEC33FCEE9DEC3E
:10028D00984005FCEE9DFE0FD5F0E9E4CEFD22ED84
:10029D00F8F5F0EE8420D21CFEADF075F008EF2FCE
:1002AD00FFED33FD4007985006D5F0F222C398FDBF
:0502BD000FD5F0EA225C
:00000001FF
